S0140000414D49542050726F6A6563742E73726563EE
S11300000C942A000C943C000C943E000C943C008C
S11300100C943C000C943C000C943C000C943C006C
S11300200C943C000C943C000C943C000C943C005C
S11300300C943C000C943C000C943C000C943C004C
S11300400C943C000C943C000C943C000C943C003C
S11300500C943C0011241FBECFE5D8E0DEBFCDBF19
S113006020E0A0E6B0E001C01D92A436B207E1F79B
S11300700E94BB000C940F010C9400001F920F927D
S11300800FB60F9211248F939F9395B380E2892723
S113009085BB9F918F910F900FBE0F901F90189565
S11300A01ABA8AB3806C8ABB8FEF87BB84B3816230
S11300B084BB939A8BB780688BBF85B7886085BFF4
S11300C078940895379A86B1876086B93D9A0895E1
S11300D0369A3699FECF24B185B122952695269578
S11300E0237090E0880F991F880F991F822B90939B
S11300F0630080936200089510BC86E089B98AB1D8
S113010088618AB980B5866080BD08955D9BFECF05
S1130110809160008CB908955F9BFECF8CB1809371
S1130120610008959091610027E69202212D112427
S11301302595259597FD2395220F822F880F880FEB
S1130140280F921B292F80916100082E000C990B17
S1130150821B91096AE070E00E94E700DE9ADF9852
S113016028BB83ED90E30197F1F700C00000DF9A0C
S1130170DE9868BB08950E9450000E9462000E94AD
S11301807C00CAE0D0E00E946800809162009091F7
S11301906300BE010E94E7006851609360000E9402
S11301A086000E948C0080916100823314F0A89A2A
S11301B005C08091610082330CF4A898809161009D
S11301C0882314F4109261000E949200DCCF97FB04
S11301D0072E16F4009407D077FD09D00E94FB0087
S11301E007FC05D03EF4909581959F4F0895709536
S11301F061957F4F0895AA1BBB1B51E107C0AA1F3D
S1130200BB1FA617B70710F0A61BB70B881F991FB3
S11302105A95A9F780959095BC01CD010895F8945D
S1050220FFCF0A
S9030000FC
